{
  "_format": "hh-sol-artifact-1",
  "contractName": "HunterZHunter",
  "sourceName": "contracts/HunterZHunter.sol",
  "abi": [
    {
      "inputs": [
        {
          "internalType": "address",
          "name": "_verifier",
          "type": "address"
        }
      ],
      "stateMutability": "nonpayable",
      "type": "constructor"
    },
    {
      "anonymous": false,
      "inputs": [
        {
          "indexed": false,
          "internalType": "string",
          "name": "huntId",
          "type": "string"
        },
        {
          "indexed": false,
          "internalType": "string",
          "name": "name",
          "type": "string"
        },
        {
          "indexed": false,
          "internalType": "uint256",
          "name": "prize",
          "type": "uint256"
        },
        {
          "indexed": false,
          "internalType": "uint256",
          "name": "endTime",
          "type": "uint256"
        },
        {
          "indexed": false,
          "internalType": "string",
          "name": "target",
          "type": "string"
        }
      ],
      "name": "HuntAdded",
      "type": "event"
    },
    {
      "anonymous": false,
      "inputs": [
        {
          "indexed": false,
          "internalType": "string",
          "name": "huntId",
          "type": "string"
        },
        {
          "indexed": false,
          "internalType": "address",
          "name": "winner",
          "type": "address"
        },
        {
          "indexed": false,
          "internalType": "uint256",
          "name": "prize",
          "type": "uint256"
        }
      ],
      "name": "PrizeWon",
      "type": "event"
    },
    {
      "inputs": [
        {
          "internalType": "string",
          "name": "huntId",
          "type": "string"
        },
        {
          "internalType": "string",
          "name": "name",
          "type": "string"
        },
        {
          "internalType": "uint256",
          "name": "endTime",
          "type": "uint256"
        },
        {
          "internalType": "string",
          "name": "target",
          "type": "string"
        }
      ],
      "name": "addHunt",
      "outputs": [],
      "stateMutability": "payable",
      "type": "function"
    },
    {
      "inputs": [],
      "name": "owner",
      "outputs": [
        {
          "internalType": "address payable",
          "name": "",
          "type": "address"
        }
      ],
      "stateMutability": "view",
      "type": "function"
    },
    {
      "inputs": [],
      "name": "verifier",
      "outputs": [
        {
          "internalType": "address",
          "name": "",
          "type": "address"
        }
      ],
      "stateMutability": "view",
      "type": "function"
    },
    {
      "inputs": [
        {
          "internalType": "string",
          "name": "huntId",
          "type": "string"
        },
        {
          "internalType": "address",
          "name": "winner",
          "type": "address"
        },
        {
          "internalType": "bytes",
          "name": "proof",
          "type": "bytes"
        }
      ],
      "name": "verifyAndAwardPrize",
      "outputs": [],
      "stateMutability": "nonpayable",
      "type": "function"
    }
  ],
  "bytecode": "0x608060405234801561001057600080fd5b50604051610f90380380610f908339818101604052810190610032919061011c565b336000806101000a81548173ffffffffffffffffffffffffffffffffffffffff021916908373ffffffffffffffffffffffffffffffffffffffff16021790555080600160006101000a81548173ffffffffffffffffffffffffffffffffffffffff021916908373ffffffffffffffffffffffffffffffffffffffff16021790555050610149565b600080fd5b600073ffffffffffffffffffffffffffffffffffffffff82169050919050565b60006100e9826100be565b9050919050565b6100f9816100de565b811461010457600080fd5b50565b600081519050610116816100f0565b92915050565b600060208284031215610132576101316100b9565b5b600061014084828501610107565b91505092915050565b610e38806101586000396000f3fe60806040526004361061003f5760003560e01c80632b7ac3f31461004457806348136ecc1461006f5780638da5cb5b14610098578063fdf395c3146100c3575b600080fd5b34801561005057600080fd5b506100596100df565b6040516100669190610430565b60405180910390f35b34801561007b57600080fd5b5061009660048036038101906100919190610672565b610105565b005b3480156100a457600080fd5b506100ad610229565b6040516100ba919061071e565b60405180910390f35b6100dd60048036038101906100d8919061076f565b61024d565b005b600160009054906101000a900473ffffffffffffffffffffffffffffffffffffffff1681565b600061011183836103e3565b905080610153576040517f08c379a000000000000000000000000000000000000000000000000000000000815260040161014a90610887565b60405180910390fd5b60006002856040516101659190610921565b9081526020016040518091039020600201549050600060028660405161018b9190610921565b9081526020016040518091039020600201819055508373ffffffffffffffffffffffffffffffffffffffff166108fc829081150290604051600060405180830381858888f193505050501580156101e6573d6000803e3d6000fd5b507fe31b9173645f67fc802cc3e3cd155ebd5da61367196de64d4efbfd87e7118e7d85858360405161021a93929190610980565b60405180910390a15050505050565b60008054906101000a900473ffffffffffffffffffffffffffffffffffffffff1681565b60038460405161025d9190610921565b908152602001604051809103902060009054906101000a900460ff16156102b9576040517f08c379a00000000000000000000000000000000000000000000000000000000081526004016102b090610a30565b60405180910390fd5b600034116102fc576040517f08c379a00000000000000000000000000000000000000000000000000000000081526004016102f390610a9c565b60405180910390fd5b600060028560405161030e9190610921565b908152602001604051809103902090508481600001908161032f9190610cc8565b50838160010190816103419190610cc8565b50348160020181905550828160030181905550818160040190816103659190610cc8565b5060016003866040516103789190610921565b908152602001604051809103902060006101000a81548160ff0219169083151502179055507f64f1209239579bd50015d5aeb51f3aed35279b082741045de4dddcac615f76ba85853486866040516103d4959493929190610d9a565b60405180910390a15050505050565b60006001905092915050565b600073ffffffffffffffffffffffffffffffffffffffff82169050919050565b600061041a826103ef565b9050919050565b61042a8161040f565b82525050565b60006020820190506104456000830184610421565b92915050565b6000604051905090565b600080fd5b600080fd5b600080fd5b600080fd5b6000601f19601f8301169050919050565b7f4e487b7100000000000000000000000000000000000000000000000000000000600052604160045260246000fd5b6104b282610469565b810181811067ffffffffffffffff821117156104d1576104d061047a565b5b80604052505050565b60006104e461044b565b90506104f082826104a9565b919050565b600067ffffffffffffffff8211156105105761050f61047a565b5b61051982610469565b9050602081019050919050565b82818337600083830152505050565b6000610548610543846104f5565b6104da565b90508281526020810184848401111561056457610563610464565b5b61056f848285610526565b509392505050565b600082601f83011261058c5761058b61045f565b5b813561059c848260208601610535565b91505092915050565b6105ae8161040f565b81146105b957600080fd5b50565b6000813590506105cb816105a5565b92915050565b600067ffffffffffffffff8211156105ec576105eb61047a565b5b6105f582610469565b9050602081019050919050565b6000610615610610846105d1565b6104da565b90508281526020810184848401111561063157610630610464565b5b61063c848285610526565b509392505050565b600082601f8301126106595761065861045f565b5b8135610669848260208601610602565b91505092915050565b60008060006060848603121561068b5761068a610455565b5b600084013567ffffffffffffffff8111156106a9576106a861045a565b5b6106b586828701610577565b93505060206106c6868287016105bc565b925050604084013567ffffffffffffffff8111156106e7576106e661045a565b5b6106f386828701610644565b9150509250925092565b6000610708826103ef565b9050919050565b610718816106fd565b82525050565b6000602082019050610733600083018461070f565b92915050565b6000819050919050565b61074c81610739565b811461075757600080fd5b50565b60008135905061076981610743565b92915050565b6000806000806080858703121561078957610788610455565b5b600085013567ffffffffffffffff8111156107a7576107a661045a565b5b6107b387828801610577565b945050602085013567ffffffffffffffff8111156107d4576107d361045a565b5b6107e087828801610577565b93505060406107f18782880161075a565b925050606085013567ffffffffffffffff8111156108125761081161045a565b5b61081e87828801610577565b91505092959194509250565b600082825260208201905092915050565b7f50726f6f66206e6f742076657269666965640000000000000000000000000000600082015250565b600061087160128361082a565b915061087c8261083b565b602082019050919050565b600060208201905081810360008301526108a081610864565b9050919050565b600081519050919050565b600081905092915050565b60005b838110156108db5780820151818401526020810190506108c0565b838111156108ea576000848401525b50505050565b60006108fb826108a7565b61090581856108b2565b93506109158185602086016108bd565b80840191505092915050565b600061092d82846108f0565b915081905092915050565b6000610943826108a7565b61094d818561082a565b935061095d8185602086016108bd565b61096681610469565b840191505092915050565b61097a81610739565b82525050565b6000606082019050818103600083015261099a8186610938565b90506109a96020830185610421565b6109b66040830184610971565b949350505050565b7f68756e7420776974682070726f766964656420696420616c726561647920657860008201527f6973747300000000000000000000000000000000000000000000000000000000602082015250565b6000610a1a60248361082a565b9150610a25826109be565b604082019050919050565b60006020820190508181036000830152610a4981610a0d565b9050919050565b7f7072697a652063616e6e6f74206265207a65726f000000000000000000000000600082015250565b6000610a8660148361082a565b9150610a9182610a50565b602082019050919050565b60006020820190508181036000830152610ab581610a79565b9050919050565b7f4e487b7100000000000000000000000000000000000000000000000000000000600052602260045260246000fd5b60006002820490506001821680610b0357607f821691505b602082108103610b1657610b15610abc565b5b50919050565b60008190508160005260206000209050919050565b60006020601f8301049050919050565b600082821b905092915050565b600060088302610b7e7fffffffffffffffffffffffffffffffffffffffffffffffffffffffffffffffff82610b41565b610b888683610b41565b95508019841693508086168417925050509392505050565b6000819050919050565b6000610bc5610bc0610bbb84610739565b610ba0565b610739565b9050919050565b6000819050919050565b610bdf83610baa565b610bf3610beb82610bcc565b848454610b4e565b825550505050565b600090565b610c08610bfb565b610c13818484610bd6565b505050565b5b81811015610c3757610c2c600082610c00565b600181019050610c19565b5050565b601f821115610c7c57610c4d81610b1c565b610c5684610b31565b81016020851015610c65578190505b610c79610c7185610b31565b830182610c18565b50505b505050565b600082821c905092915050565b6000610c9f60001984600802610c81565b1980831691505092915050565b6000610cb88383610c8e565b9150826002028217905092915050565b610cd1826108a7565b67ffffffffffffffff811115610cea57610ce961047a565b5b610cf48254610aeb565b610cff828285610c3b565b600060209050601f831160018114610d325760008415610d20578287015190505b610d2a8582610cac565b865550610d92565b601f198416610d4086610b1c565b60005b82811015610d6857848901518255600182019150602085019450602081019050610d43565b86831015610d855784890151610d81601f891682610c8e565b8355505b6001600288020188555050505b505050505050565b600060a0820190508181036000830152610db48188610938565b90508181036020830152610dc88187610938565b9050610dd76040830186610971565b610de46060830185610971565b8181036080830152610df68184610938565b9050969550505050505056fea26469706673582212204619ba0f7d6d83809c3d77b8b7b5f13a93a17b34d2af92246c1ee9109b6f09d964736f6c634300080f0033",
  "linkReferences": {},
  "deployedLinkReferences": {}
}