{
  "_format": "hh-sol-artifact-1",
  "contractName": "HunterZHunter",
  "sourceName": "contracts/HunterZHunter.sol",
  "abi": [
    {
      "inputs": [
        {
          "internalType": "address",
          "name": "_verifier",
          "type": "address"
        }
      ],
      "stateMutability": "nonpayable",
      "type": "constructor"
    },
    {
      "anonymous": false,
      "inputs": [
        {
          "indexed": false,
          "internalType": "string",
          "name": "huntId",
          "type": "string"
        },
        {
          "indexed": false,
          "internalType": "string",
          "name": "name",
          "type": "string"
        },
        {
          "indexed": false,
          "internalType": "string",
          "name": "description",
          "type": "string"
        },
        {
          "indexed": false,
          "internalType": "uint256",
          "name": "prize",
          "type": "uint256"
        },
        {
          "indexed": false,
          "internalType": "uint256",
          "name": "endTime",
          "type": "uint256"
        },
        {
          "indexed": false,
          "internalType": "string",
          "name": "imageReference",
          "type": "string"
        },
        {
          "indexed": false,
          "internalType": "string",
          "name": "target",
          "type": "string"
        }
      ],
      "name": "HuntAdded",
      "type": "event"
    },
    {
      "anonymous": false,
      "inputs": [
        {
          "indexed": false,
          "internalType": "string",
          "name": "huntId",
          "type": "string"
        },
        {
          "indexed": false,
          "internalType": "address",
          "name": "winner",
          "type": "address"
        },
        {
          "indexed": false,
          "internalType": "uint256",
          "name": "prize",
          "type": "uint256"
        }
      ],
      "name": "PrizeWon",
      "type": "event"
    },
    {
      "inputs": [
        {
          "internalType": "string",
          "name": "huntId",
          "type": "string"
        },
        {
          "internalType": "string",
          "name": "name",
          "type": "string"
        },
        {
          "internalType": "string",
          "name": "description",
          "type": "string"
        },
        {
          "internalType": "uint256",
          "name": "endTime",
          "type": "uint256"
        },
        {
          "internalType": "string",
          "name": "imageReference",
          "type": "string"
        },
        {
          "internalType": "string",
          "name": "target",
          "type": "string"
        }
      ],
      "name": "addHunt",
      "outputs": [],
      "stateMutability": "payable",
      "type": "function"
    },
    {
      "inputs": [],
      "name": "owner",
      "outputs": [
        {
          "internalType": "address payable",
          "name": "",
          "type": "address"
        }
      ],
      "stateMutability": "view",
      "type": "function"
    },
    {
      "inputs": [],
      "name": "verifier",
      "outputs": [
        {
          "internalType": "address",
          "name": "",
          "type": "address"
        }
      ],
      "stateMutability": "view",
      "type": "function"
    },
    {
      "inputs": [
        {
          "internalType": "string",
          "name": "huntId",
          "type": "string"
        },
        {
          "internalType": "address",
          "name": "winner",
          "type": "address"
        },
        {
          "internalType": "bytes",
          "name": "proof",
          "type": "bytes"
        }
      ],
      "name": "verifyAndAwardPrize",
      "outputs": [],
      "stateMutability": "nonpayable",
      "type": "function"
    }
  ],
  "bytecode": "0x60806040523480156200001157600080fd5b506040516200114a3803806200114a833981810160405281019062000037919062000129565b336000806101000a81548173ffffffffffffffffffffffffffffffffffffffff021916908373ffffffffffffffffffffffffffffffffffffffff16021790555080600160006101000a81548173ffffffffffffffffffffffffffffffffffffffff021916908373ffffffffffffffffffffffffffffffffffffffff160217905550506200015b565b600080fd5b600073ffffffffffffffffffffffffffffffffffffffff82169050919050565b6000620000f182620000c4565b9050919050565b6200010381620000e4565b81146200010f57600080fd5b50565b6000815190506200012381620000f8565b92915050565b600060208284031215620001425762000141620000bf565b5b6000620001528482850162000112565b91505092915050565b610fdf806200016b6000396000f3fe60806040526004361061003f5760003560e01c80632b7ac3f31461004457806348136ecc1461006f578063708e2853146100985780638da5cb5b146100b4575b600080fd5b34801561005057600080fd5b506100596100df565b60405161006691906104f1565b60405180910390f35b34801561007b57600080fd5b5061009660048036038101906100919190610733565b610105565b005b6100b260048036038101906100ad91906107f4565b61022d565b005b3480156100c057600080fd5b506100c96103ed565b6040516100d6919061092e565b60405180910390f35b600160009054906101000a900473ffffffffffffffffffffffffffffffffffffffff1681565b6000806101128484610411565b9150915081610156576040517f08c379a000000000000000000000000000000000000000000000000000000000815260040161014d906109a6565b60405180910390fd5b60006002866040516101689190610a40565b9081526020016040518091039020600301549050600060028760405161018e9190610a40565b9081526020016040518091039020600301819055508473ffffffffffffffffffffffffffffffffffffffff166108fc829081150290604051600060405180830381858888f193505050501580156101e9573d6000803e3d6000fd5b507fe31b9173645f67fc802cc3e3cd155ebd5da61367196de64d4efbfd87e7118e7d86868360405161021d93929190610a9f565b60405180910390a1505050505050565b60038660405161023d9190610a40565b908152602001604051809103902060009054906101000a900460ff1615610299576040517f08c379a000000000000000000000000000000000000000000000000000000000815260040161029090610b4f565b60405180910390fd5b600034116102dc576040517f08c379a00000000000000000000000000000000000000000000000000000000081526004016102d390610bbb565b60405180910390fd5b60006002876040516102ee9190610a40565b908152602001604051809103902090508681600001908161030f9190610de7565b50858160010190816103219190610de7565b50848160020190816103339190610de7565b50348160030181905550838160040181905550828160050190816103579190610de7565b50818160060190816103699190610de7565b50600160038860405161037c9190610a40565b908152602001604051809103902060006101000a81548160ff0219169083151502179055507f16dfca623eff0e602c550df792e47c93c37bcc0d78811849a75bf8ae4380710e878787348888886040516103dc9796959493929190610eb9565b60405180910390a150505050505050565b60008054906101000a900473ffffffffffffffffffffffffffffffffffffffff1681565b60006060600080600160009054906101000a900473ffffffffffffffffffffffffffffffffffffffff1673ffffffffffffffffffffffffffffffffffffffff168560405161045f9190610f92565b600060405180830381855afa9150503d806000811461049a576040519150601f19603f3d011682016040523d82523d6000602084013e61049f565b606091505b509150915081935050509250929050565b600073ffffffffffffffffffffffffffffffffffffffff82169050919050565b60006104db826104b0565b9050919050565b6104eb816104d0565b82525050565b600060208201905061050660008301846104e2565b92915050565b6000604051905090565b600080fd5b600080fd5b600080fd5b600080fd5b6000601f19601f8301169050919050565b7f4e487b7100000000000000000000000000000000000000000000000000000000600052604160045260246000fd5b6105738261052a565b810181811067ffffffffffffffff821117156105925761059161053b565b5b80604052505050565b60006105a561050c565b90506105b1828261056a565b919050565b600067ffffffffffffffff8211156105d1576105d061053b565b5b6105da8261052a565b9050602081019050919050565b82818337600083830152505050565b6000610609610604846105b6565b61059b565b90508281526020810184848401111561062557610624610525565b5b6106308482856105e7565b509392505050565b600082601f83011261064d5761064c610520565b5b813561065d8482602086016105f6565b91505092915050565b61066f816104d0565b811461067a57600080fd5b50565b60008135905061068c81610666565b92915050565b600067ffffffffffffffff8211156106ad576106ac61053b565b5b6106b68261052a565b9050602081019050919050565b60006106d66106d184610692565b61059b565b9050828152602081018484840111156106f2576106f1610525565b5b6106fd8482856105e7565b509392505050565b600082601f83011261071a57610719610520565b5b813561072a8482602086016106c3565b91505092915050565b60008060006060848603121561074c5761074b610516565b5b600084013567ffffffffffffffff81111561076a5761076961051b565b5b61077686828701610638565b93505060206107878682870161067d565b925050604084013567ffffffffffffffff8111156107a8576107a761051b565b5b6107b486828701610705565b9150509250925092565b6000819050919050565b6107d1816107be565b81146107dc57600080fd5b50565b6000813590506107ee816107c8565b92915050565b60008060008060008060c0878903121561081157610810610516565b5b600087013567ffffffffffffffff81111561082f5761082e61051b565b5b61083b89828a01610638565b965050602087013567ffffffffffffffff81111561085c5761085b61051b565b5b61086889828a01610638565b955050604087013567ffffffffffffffff8111156108895761088861051b565b5b61089589828a01610638565b94505060606108a689828a016107df565b935050608087013567ffffffffffffffff8111156108c7576108c661051b565b5b6108d389828a01610638565b92505060a087013567ffffffffffffffff8111156108f4576108f361051b565b5b61090089828a01610638565b9150509295509295509295565b6000610918826104b0565b9050919050565b6109288161090d565b82525050565b6000602082019050610943600083018461091f565b92915050565b600082825260208201905092915050565b7f50726f6f66206e6f742076657269666965640000000000000000000000000000600082015250565b6000610990601283610949565b915061099b8261095a565b602082019050919050565b600060208201905081810360008301526109bf81610983565b9050919050565b600081519050919050565b600081905092915050565b60005b838110156109fa5780820151818401526020810190506109df565b83811115610a09576000848401525b50505050565b6000610a1a826109c6565b610a2481856109d1565b9350610a348185602086016109dc565b80840191505092915050565b6000610a4c8284610a0f565b915081905092915050565b6000610a62826109c6565b610a6c8185610949565b9350610a7c8185602086016109dc565b610a858161052a565b840191505092915050565b610a99816107be565b82525050565b60006060820190508181036000830152610ab98186610a57565b9050610ac860208301856104e2565b610ad56040830184610a90565b949350505050565b7f68756e7420776974682070726f766964656420696420616c726561647920657860008201527f6973747300000000000000000000000000000000000000000000000000000000602082015250565b6000610b39602483610949565b9150610b4482610add565b604082019050919050565b60006020820190508181036000830152610b6881610b2c565b9050919050565b7f7072697a652063616e6e6f74206265207a65726f000000000000000000000000600082015250565b6000610ba5601483610949565b9150610bb082610b6f565b602082019050919050565b60006020820190508181036000830152610bd481610b98565b9050919050565b7f4e487b7100000000000000000000000000000000000000000000000000000000600052602260045260246000fd5b60006002820490506001821680610c2257607f821691505b602082108103610c3557610c34610bdb565b5b50919050565b60008190508160005260206000209050919050565b60006020601f8301049050919050565b600082821b905092915050565b600060088302610c9d7fffffffffffffffffffffffffffffffffffffffffffffffffffffffffffffffff82610c60565b610ca78683610c60565b95508019841693508086168417925050509392505050565b6000819050919050565b6000610ce4610cdf610cda846107be565b610cbf565b6107be565b9050919050565b6000819050919050565b610cfe83610cc9565b610d12610d0a82610ceb565b848454610c6d565b825550505050565b600090565b610d27610d1a565b610d32818484610cf5565b505050565b5b81811015610d5657610d4b600082610d1f565b600181019050610d38565b5050565b601f821115610d9b57610d6c81610c3b565b610d7584610c50565b81016020851015610d84578190505b610d98610d9085610c50565b830182610d37565b50505b505050565b600082821c905092915050565b6000610dbe60001984600802610da0565b1980831691505092915050565b6000610dd78383610dad565b9150826002028217905092915050565b610df0826109c6565b67ffffffffffffffff811115610e0957610e0861053b565b5b610e138254610c0a565b610e1e828285610d5a565b600060209050601f831160018114610e515760008415610e3f578287015190505b610e498582610dcb565b865550610eb1565b601f198416610e5f86610c3b565b60005b82811015610e8757848901518255600182019150602085019450602081019050610e62565b86831015610ea45784890151610ea0601f891682610dad565b8355505b6001600288020188555050505b505050505050565b600060e0820190508181036000830152610ed3818a610a57565b90508181036020830152610ee78189610a57565b90508181036040830152610efb8188610a57565b9050610f0a6060830187610a90565b610f176080830186610a90565b81810360a0830152610f298185610a57565b905081810360c0830152610f3d8184610a57565b905098975050505050505050565b600081519050919050565b600081905092915050565b6000610f6c82610f4b565b610f768185610f56565b9350610f868185602086016109dc565b80840191505092915050565b6000610f9e8284610f61565b91508190509291505056fea2646970667358221220bc14ecaa7ec2c9834cd7d68c5a0e97cce69595585c25e38f0addb6d2d895c10d64736f6c634300080f0033",
  "linkReferences": {},
  "deployedLinkReferences": {}
}