{
  "_format": "hh-sol-artifact-1",
  "contractName": "HunterZHunter",
  "sourceName": "contracts/HunterZHunter.sol",
  "abi": [
    {
      "anonymous": false,
      "inputs": [
        {
          "indexed": false,
          "internalType": "string",
          "name": "huntId",
          "type": "string"
        },
        {
          "indexed": false,
          "internalType": "string",
          "name": "name",
          "type": "string"
        },
        {
          "indexed": false,
          "internalType": "uint256",
          "name": "prize",
          "type": "uint256"
        },
        {
          "indexed": false,
          "internalType": "uint256",
          "name": "endTime",
          "type": "uint256"
        },
        {
          "indexed": false,
          "internalType": "bytes32",
          "name": "target",
          "type": "bytes32"
        }
      ],
      "name": "HuntAdded",
      "type": "event"
    },
    {
      "anonymous": false,
      "inputs": [
        {
          "indexed": false,
          "internalType": "string",
          "name": "huntId",
          "type": "string"
        },
        {
          "indexed": false,
          "internalType": "address",
          "name": "winner",
          "type": "address"
        },
        {
          "indexed": false,
          "internalType": "uint256",
          "name": "prize",
          "type": "uint256"
        }
      ],
      "name": "PrizeWon",
      "type": "event"
    },
    {
      "inputs": [
        {
          "internalType": "string",
          "name": "huntId",
          "type": "string"
        },
        {
          "internalType": "string",
          "name": "name",
          "type": "string"
        },
        {
          "internalType": "uint256",
          "name": "prize",
          "type": "uint256"
        },
        {
          "internalType": "uint256",
          "name": "endTime",
          "type": "uint256"
        },
        {
          "internalType": "bytes32",
          "name": "target",
          "type": "bytes32"
        }
      ],
      "name": "addHunt",
      "outputs": [],
      "stateMutability": "nonpayable",
      "type": "function"
    },
    {
      "inputs": [
        {
          "internalType": "string",
          "name": "huntId",
          "type": "string"
        },
        {
          "internalType": "address",
          "name": "winner",
          "type": "address"
        },
        {
          "internalType": "bytes",
          "name": "proof",
          "type": "bytes"
        }
      ],
      "name": "verifyAndAwardPrize",
      "outputs": [],
      "stateMutability": "nonpayable",
      "type": "function"
    }
  ],
  "bytecode": "0x608060405234801561001057600080fd5b50610c86806100206000396000f3fe608060405234801561001057600080fd5b50600436106100365760003560e01c8063072c00dc1461003b57806348136ecc14610057575b600080fd5b61005560048036038101906100509190610470565b610073565b005b610071600480360381019061006c9190610622565b61011a565b005b600080866040516100849190610727565b90815260200160405180910390209050858160000190816100a5919061094a565b50848160010190816100b7919061094a565b508381600201819055508281600301819055508181600401819055507f4f2aa04f0dd0a1ec6dc3a6244fe26865b42a9bc7687db5bccc460fed10b2b633868686868660405161010a959493929190610a84565b60405180910390a1505050505050565b600061012683836102a2565b905080610168576040517f08c379a000000000000000000000000000000000000000000000000000000000815260040161015f90610b31565b60405180910390fd5b600080856040516101799190610727565b90815260200160405180910390206002015490506000808660405161019e9190610727565b90815260200160405180910390206002018190555060008473ffffffffffffffffffffffffffffffffffffffff16826040516101d990610b82565b60006040518083038185875af1925050503d8060008114610216576040519150601f19603f3d011682016040523d82523d6000602084013e61021b565b606091505b505090508061025f576040517f08c379a000000000000000000000000000000000000000000000000000000000815260040161025690610be3565b60405180910390fd5b7fe31b9173645f67fc802cc3e3cd155ebd5da61367196de64d4efbfd87e7118e7d86868460405161029293929190610c12565b60405180910390a1505050505050565b600092915050565b6000604051905090565b600080fd5b600080fd5b600080fd5b600080fd5b6000601f19601f8301169050919050565b7f4e487b7100000000000000000000000000000000000000000000000000000000600052604160045260246000fd5b610311826102c8565b810181811067ffffffffffffffff821117156103305761032f6102d9565b5b80604052505050565b60006103436102aa565b905061034f8282610308565b919050565b600067ffffffffffffffff82111561036f5761036e6102d9565b5b610378826102c8565b9050602081019050919050565b82818337600083830152505050565b60006103a76103a284610354565b610339565b9050828152602081018484840111156103c3576103c26102c3565b5b6103ce848285610385565b509392505050565b600082601f8301126103eb576103ea6102be565b5b81356103fb848260208601610394565b91505092915050565b6000819050919050565b61041781610404565b811461042257600080fd5b50565b6000813590506104348161040e565b92915050565b6000819050919050565b61044d8161043a565b811461045857600080fd5b50565b60008135905061046a81610444565b92915050565b600080600080600060a0868803121561048c5761048b6102b4565b5b600086013567ffffffffffffffff8111156104aa576104a96102b9565b5b6104b6888289016103d6565b955050602086013567ffffffffffffffff8111156104d7576104d66102b9565b5b6104e3888289016103d6565b94505060406104f488828901610425565b935050606061050588828901610425565b92505060806105168882890161045b565b9150509295509295909350565b600073ffffffffffffffffffffffffffffffffffffffff82169050919050565b600061054e82610523565b9050919050565b61055e81610543565b811461056957600080fd5b50565b60008135905061057b81610555565b92915050565b600067ffffffffffffffff82111561059c5761059b6102d9565b5b6105a5826102c8565b9050602081019050919050565b60006105c56105c084610581565b610339565b9050828152602081018484840111156105e1576105e06102c3565b5b6105ec848285610385565b509392505050565b600082601f830112610609576106086102be565b5b81356106198482602086016105b2565b91505092915050565b60008060006060848603121561063b5761063a6102b4565b5b600084013567ffffffffffffffff811115610659576106586102b9565b5b610665868287016103d6565b93505060206106768682870161056c565b925050604084013567ffffffffffffffff811115610697576106966102b9565b5b6106a3868287016105f4565b9150509250925092565b600081519050919050565b600081905092915050565b60005b838110156106e15780820151818401526020810190506106c6565b838111156106f0576000848401525b50505050565b6000610701826106ad565b61070b81856106b8565b935061071b8185602086016106c3565b80840191505092915050565b600061073382846106f6565b915081905092915050565b7f4e487b7100000000000000000000000000000000000000000000000000000000600052602260045260246000fd5b6000600282049050600182168061078557607f821691505b6020821081036107985761079761073e565b5b50919050565b60008190508160005260206000209050919050565b60006020601f8301049050919050565b600082821b905092915050565b6000600883026108007fffffffffffffffffffffffffffffffffffffffffffffffffffffffffffffffff826107c3565b61080a86836107c3565b95508019841693508086168417925050509392505050565b6000819050919050565b600061084761084261083d84610404565b610822565b610404565b9050919050565b6000819050919050565b6108618361082c565b61087561086d8261084e565b8484546107d0565b825550505050565b600090565b61088a61087d565b610895818484610858565b505050565b5b818110156108b9576108ae600082610882565b60018101905061089b565b5050565b601f8211156108fe576108cf8161079e565b6108d8846107b3565b810160208510156108e7578190505b6108fb6108f3856107b3565b83018261089a565b50505b505050565b600082821c905092915050565b600061092160001984600802610903565b1980831691505092915050565b600061093a8383610910565b9150826002028217905092915050565b610953826106ad565b67ffffffffffffffff81111561096c5761096b6102d9565b5b610976825461076d565b6109818282856108bd565b600060209050601f8311600181146109b457600084156109a2578287015190505b6109ac858261092e565b865550610a14565b601f1984166109c28661079e565b60005b828110156109ea578489015182556001820191506020850194506020810190506109c5565b86831015610a075784890151610a03601f891682610910565b8355505b6001600288020188555050505b505050505050565b600082825260208201905092915050565b6000610a38826106ad565b610a428185610a1c565b9350610a528185602086016106c3565b610a5b816102c8565b840191505092915050565b610a6f81610404565b82525050565b610a7e8161043a565b82525050565b600060a0820190508181036000830152610a9e8188610a2d565b90508181036020830152610ab28187610a2d565b9050610ac16040830186610a66565b610ace6060830185610a66565b610adb6080830184610a75565b9695505050505050565b7f50726f6f66206e6f742076657269666965640000000000000000000000000000600082015250565b6000610b1b601283610a1c565b9150610b2682610ae5565b602082019050919050565b60006020820190508181036000830152610b4a81610b0e565b9050919050565b600081905092915050565b50565b6000610b6c600083610b51565b9150610b7782610b5c565b600082019050919050565b6000610b8d82610b5f565b9150819050919050565b7f5472616e73666572206661696c65640000000000000000000000000000000000600082015250565b6000610bcd600f83610a1c565b9150610bd882610b97565b602082019050919050565b60006020820190508181036000830152610bfc81610bc0565b9050919050565b610c0c81610543565b82525050565b60006060820190508181036000830152610c2c8186610a2d565b9050610c3b6020830185610c03565b610c486040830184610a66565b94935050505056fea2646970667358221220985864cb2b7abfe5c48561adfc88a2c9c8835badd87a9bba226eb15920fc923164736f6c634300080f0033",
  "linkReferences": {},
  "deployedLinkReferences": {}
}