{
  "_format": "hh-sol-artifact-1",
  "contractName": "SemaphoreAccount",
  "sourceName": "contracts/SemaphoreAccount.sol",
  "abi": [
    {
      "inputs": [
        {
          "internalType": "contract IEntryPoint",
          "name": "anEntryPoint",
          "type": "address"
        },
        {
          "internalType": "contract ISemaphore",
          "name": "semaphoreAddr",
          "type": "address"
        }
      ],
      "stateMutability": "nonpayable",
      "type": "constructor"
    },
    {
      "anonymous": false,
      "inputs": [
        {
          "indexed": false,
          "internalType": "address",
          "name": "previousAdmin",
          "type": "address"
        },
        {
          "indexed": false,
          "internalType": "address",
          "name": "newAdmin",
          "type": "address"
        }
      ],
      "name": "AdminChanged",
      "type": "event"
    },
    {
      "anonymous": false,
      "inputs": [
        {
          "indexed": true,
          "internalType": "address",
          "name": "beacon",
          "type": "address"
        }
      ],
      "name": "BeaconUpgraded",
      "type": "event"
    },
    {
      "anonymous": false,
      "inputs": [
        {
          "indexed": false,
          "internalType": "uint8",
          "name": "version",
          "type": "uint8"
        }
      ],
      "name": "Initialized",
      "type": "event"
    },
    {
      "anonymous": false,
      "inputs": [
        {
          "indexed": true,
          "internalType": "contract IEntryPoint",
          "name": "entryPoint",
          "type": "address"
        },
        {
          "indexed": true,
          "internalType": "address",
          "name": "owner",
          "type": "address"
        },
        {
          "indexed": true,
          "internalType": "address",
          "name": "semaphore",
          "type": "address"
        }
      ],
      "name": "SimpleAccountInitialized",
      "type": "event"
    },
    {
      "anonymous": false,
      "inputs": [
        {
          "indexed": true,
          "internalType": "address",
          "name": "implementation",
          "type": "address"
        }
      ],
      "name": "Upgraded",
      "type": "event"
    },
    {
      "inputs": [],
      "name": "addDeposit",
      "outputs": [],
      "stateMutability": "payable",
      "type": "function"
    },
    {
      "inputs": [],
      "name": "entryPoint",
      "outputs": [
        {
          "internalType": "contract IEntryPoint",
          "name": "",
          "type": "address"
        }
      ],
      "stateMutability": "view",
      "type": "function"
    },
    {
      "inputs": [
        {
          "internalType": "address",
          "name": "dest",
          "type": "address"
        },
        {
          "internalType": "uint256",
          "name": "value",
          "type": "uint256"
        },
        {
          "internalType": "bytes",
          "name": "func",
          "type": "bytes"
        }
      ],
      "name": "execute",
      "outputs": [],
      "stateMutability": "nonpayable",
      "type": "function"
    },
    {
      "inputs": [
        {
          "internalType": "address[]",
          "name": "dest",
          "type": "address[]"
        },
        {
          "internalType": "bytes[]",
          "name": "func",
          "type": "bytes[]"
        }
      ],
      "name": "executeBatch",
      "outputs": [],
      "stateMutability": "nonpayable",
      "type": "function"
    },
    {
      "inputs": [],
      "name": "getDeposit",
      "outputs": [
        {
          "internalType": "uint256",
          "name": "",
          "type": "uint256"
        }
      ],
      "stateMutability": "view",
      "type": "function"
    },
    {
      "inputs": [
        {
          "internalType": "address",
          "name": "anOwner",
          "type": "address"
        }
      ],
      "name": "initialize",
      "outputs": [],
      "stateMutability": "nonpayable",
      "type": "function"
    },
    {
      "inputs": [],
      "name": "nonce",
      "outputs": [
        {
          "internalType": "uint256",
          "name": "",
          "type": "uint256"
        }
      ],
      "stateMutability": "view",
      "type": "function"
    },
    {
      "inputs": [],
      "name": "owner",
      "outputs": [
        {
          "internalType": "address",
          "name": "",
          "type": "address"
        }
      ],
      "stateMutability": "view",
      "type": "function"
    },
    {
      "inputs": [],
      "name": "proxiableUUID",
      "outputs": [
        {
          "internalType": "bytes32",
          "name": "",
          "type": "bytes32"
        }
      ],
      "stateMutability": "view",
      "type": "function"
    },
    {
      "inputs": [],
      "name": "semaphore",
      "outputs": [
        {
          "internalType": "contract ISemaphore",
          "name": "",
          "type": "address"
        }
      ],
      "stateMutability": "view",
      "type": "function"
    },
    {
      "inputs": [
        {
          "internalType": "address",
          "name": "newImplementation",
          "type": "address"
        }
      ],
      "name": "upgradeTo",
      "outputs": [],
      "stateMutability": "nonpayable",
      "type": "function"
    },
    {
      "inputs": [
        {
          "internalType": "address",
          "name": "newImplementation",
          "type": "address"
        },
        {
          "internalType": "bytes",
          "name": "data",
          "type": "bytes"
        }
      ],
      "name": "upgradeToAndCall",
      "outputs": [],
      "stateMutability": "payable",
      "type": "function"
    },
    {
      "inputs": [
        {
          "components": [
            {
              "internalType": "address",
              "name": "sender",
              "type": "address"
            },
            {
              "internalType": "uint256",
              "name": "nonce",
              "type": "uint256"
            },
            {
              "internalType": "bytes",
              "name": "initCode",
              "type": "bytes"
            },
            {
              "internalType": "bytes",
              "name": "callData",
              "type": "bytes"
            },
            {
              "internalType": "uint256",
              "name": "callGasLimit",
              "type": "uint256"
            },
            {
              "internalType": "uint256",
              "name": "verificationGasLimit",
              "type": "uint256"
            },
            {
              "internalType": "uint256",
              "name": "preVerificationGas",
              "type": "uint256"
            },
            {
              "internalType": "uint256",
              "name": "maxFeePerGas",
              "type": "uint256"
            },
            {
              "internalType": "uint256",
              "name": "maxPriorityFeePerGas",
              "type": "uint256"
            },
            {
              "internalType": "bytes",
              "name": "paymasterAndData",
              "type": "bytes"
            },
            {
              "internalType": "bytes",
              "name": "signature",
              "type": "bytes"
            }
          ],
          "internalType": "struct UserOperation",
          "name": "userOp",
          "type": "tuple"
        },
        {
          "internalType": "bytes32",
          "name": "userOpHash",
          "type": "bytes32"
        },
        {
          "internalType": "uint256",
          "name": "missingAccountFunds",
          "type": "uint256"
        }
      ],
      "name": "validateUserOp",
      "outputs": [
        {
          "internalType": "uint256",
          "name": "validationData",
          "type": "uint256"
        }
      ],
      "stateMutability": "nonpayable",
      "type": "function"
    },
    {
      "inputs": [
        {
          "internalType": "address payable",
          "name": "withdrawAddress",
          "type": "address"
        },
        {
          "internalType": "uint256",
          "name": "amount",
          "type": "uint256"
        }
      ],
      "name": "withdrawDepositTo",
      "outputs": [],
      "stateMutability": "nonpayable",
      "type": "function"
    },
    {
      "stateMutability": "payable",
      "type": "receive"
    }
  ],
  "bytecode": "0x60c06040523073ffffffffffffffffffffffffffffffffffffffff1660809073ffffffffffffffffffffffffffffffffffffffff168152503480156200004457600080fd5b5060405162002ef238038062002ef283398181016040528101906200006a919062000281565b8173ffffffffffffffffffffffffffffffffffffffff1660a08173ffffffffffffffffffffffffffffffffffffffff168152505080600260006101000a81548173ffffffffffffffffffffffffffffffffffffffff021916908373ffffffffffffffffffffffffffffffffffffffff160217905550620000ef620000f760201b60201c565b5050620003ac565b600060019054906101000a900460ff16156200014a576040517f08c379a000000000000000000000000000000000000000000000000000000000815260040162000141906200034f565b60405180910390fd5b60ff801660008054906101000a900460ff1660ff161015620001bc5760ff6000806101000a81548160ff021916908360ff1602179055507f7f26b83ff96e1f2b6a682f133852f6798a09c465da95921460cefb384740249860ff604051620001b391906200038f565b60405180910390a15b565b600080fd5b600073ffffffffffffffffffffffffffffffffffffffff82169050919050565b6000620001f082620001c3565b9050919050565b60006200020482620001e3565b9050919050565b6200021681620001f7565b81146200022257600080fd5b50565b60008151905062000236816200020b565b92915050565b60006200024982620001e3565b9050919050565b6200025b816200023c565b81146200026757600080fd5b50565b6000815190506200027b8162000250565b92915050565b600080604083850312156200029b576200029a620001be565b5b6000620002ab8582860162000225565b9250506020620002be858286016200026a565b9150509250929050565b600082825260208201905092915050565b7f496e697469616c697a61626c653a20636f6e747261637420697320696e69746960008201527f616c697a696e6700000000000000000000000000000000000000000000000000602082015250565b600062000337602783620002c8565b91506200034482620002d9565b604082019050919050565b600060208201905081810360008301526200036a8162000328565b9050919050565b600060ff82169050919050565b620003898162000371565b82525050565b6000602082019050620003a660008301846200037e565b92915050565b60805160a051612afd620003f56000396000818161096c0152611322015260008181610433015281816104c1015281816106f90152818161078701526108370152612afd6000f3fe6080604052600436106100e15760003560e01c80637b5d25341161007f578063b0d691fe11610059578063b0d691fe14610277578063b61d27f6146102a2578063c399ec88146102cb578063c4d66de8146102f6576100e8565b80637b5d2534146101f65780638da5cb5b14610221578063affed0e01461024c576100e8565b80634a58db19116100bb5780634a58db191461017c5780634d44560d146101865780634f1ef286146101af57806352d1902d146101cb576100e8565b806318dfb3c7146100ed5780633659cfe6146101165780633a871cdd1461013f576100e8565b366100e857005b600080fd5b3480156100f957600080fd5b50610114600480360381019061010f9190611745565b61031f565b005b34801561012257600080fd5b5061013d60048036038101906101389190611824565b610431565b005b34801561014b57600080fd5b50610166600480360381019061016191906118e2565b6105b9565b6040516101739190611960565b60405180910390f35b610184610602565b005b34801561019257600080fd5b506101ad60048036038101906101a891906119b9565b610677565b005b6101c960048036038101906101c49190611b3a565b6106f7565b005b3480156101d757600080fd5b506101e0610833565b6040516101ed9190611ba5565b60405180910390f35b34801561020257600080fd5b5061020b6108ec565b6040516102189190611c1f565b60405180910390f35b34801561022d57600080fd5b50610236610912565b6040516102439190611c49565b60405180910390f35b34801561025857600080fd5b50610261610938565b60405161026e9190611960565b60405180910390f35b34801561028357600080fd5b5061028c610968565b6040516102999190611c85565b60405180910390f35b3480156102ae57600080fd5b506102c960048036038101906102c49190611cf6565b610990565b005b3480156102d757600080fd5b506102e06109ed565b6040516102ed9190611960565b60405180910390f35b34801561030257600080fd5b5061031d60048036038101906103189190611824565b610a75565b005b610327610bb5565b81819050848490501461036f576040517f08c379a000000000000000000000000000000000000000000000000000000000815260040161036690611dc7565b60405180910390fd5b60005b8484905081101561042a5761041785858381811061039357610392611de7565b5b90506020020160208101906103a89190611824565b60008585858181106103bd576103bc611de7565b5b90506020028101906103cf9190611e25565b8080601f016020809104026020016040519081016040528093929190818152602001838380828437600081840152601f19601f82011690508083019250505050505050610c84565b808061042290611eb7565b915050610372565b5050505050565b7f000000000000000000000000000000000000000000000000000000000000000073ffffffffffffffffffffffffffffffffffffffff163073ffffffffffffffffffffffffffffffffffffffff16036104bf576040517f08c379a00000000000000000000000000000000000000000000000000000000081526004016104b690611f71565b60405180910390fd5b7f000000000000000000000000000000000000000000000000000000000000000073ffffffffffffffffffffffffffffffffffffffff166104fe610d08565b73ffffffffffffffffffffffffffffffffffffffff1614610554576040517f08c379a000000000000000000000000000000000000000000000000000000000815260040161054b90612003565b60405180910390fd5b61055d81610d5f565b6105b681600067ffffffffffffffff81111561057c5761057b611a0f565b5b6040519080825280601f01601f1916602001820160405280156105ae5781602001600182028036833780820191505090505b506000610d6a565b50565b60006105c3610ed8565b6105cd8484610f4f565b905060008480604001906105e19190611e25565b9050036105f2576105f184611038565b5b6105fb826110e6565b9392505050565b61060a610968565b73ffffffffffffffffffffffffffffffffffffffff1663b760faf934306040518363ffffffff1660e01b81526004016106439190611c49565b6000604051808303818588803b15801561065c57600080fd5b505af1158015610670573d6000803e3d6000fd5b5050505050565b61067f611182565b610687610968565b73ffffffffffffffffffffffffffffffffffffffff1663205c287883836040518363ffffffff1660e01b81526004016106c1929190612032565b600060405180830381600087803b1580156106db57600080fd5b505af11580156106ef573d6000803e3d6000fd5b505050505050565b7f000000000000000000000000000000000000000000000000000000000000000073ffffffffffffffffffffffffffffffffffffffff163073ffffffffffffffffffffffffffffffffffffffff1603610785576040517f08c379a000000000000000000000000000000000000000000000000000000000815260040161077c90611f71565b60405180910390fd5b7f000000000000000000000000000000000000000000000000000000000000000073ffffffffffffffffffffffffffffffffffffffff166107c4610d08565b73ffffffffffffffffffffffffffffffffffffffff161461081a576040517f08c379a000000000000000000000000000000000000000000000000000000000815260040161081190612003565b60405180910390fd5b61082382610d5f565b61082f82826001610d6a565b5050565b60007f000000000000000000000000000000000000000000000000000000000000000073ffffffffffffffffffffffffffffffffffffffff163073ffffffffffffffffffffffffffffffffffffffff16146108c3576040517f08c379a00000000000000000000000000000000000000000000000000000000081526004016108ba906120cd565b60405180910390fd5b7f360894a13ba1a3210667c828492db98dca3e2076cc3735a920a3ca505d382bbc60001b905090565b600260009054906101000a900473ffffffffffffffffffffffffffffffffffffffff1681565b6001600c9054906101000a900473ffffffffffffffffffffffffffffffffffffffff1681565b6000600160009054906101000a90046bffffffffffffffffffffffff166bffffffffffffffffffffffff16905090565b60007f0000000000000000000000000000000000000000000000000000000000000000905090565b610998610bb5565b6109e7848484848080601f016020809104026020016040519081016040528093929190818152602001838380828437600081840152601f19601f82011690508083019250505050505050610c84565b50505050565b60006109f7610968565b73ffffffffffffffffffffffffffffffffffffffff166370a08231306040518263ffffffff1660e01b8152600401610a2f9190611c49565b602060405180830381865afa158015610a4c573d6000803e3d6000fd5b505050506040513d601f19601f82011682018060405250810190610a709190612102565b905090565b60008060019054906101000a900460ff16159050808015610aa65750600160008054906101000a900460ff1660ff16105b80610ad35750610ab53061124a565b158015610ad25750600160008054906101000a900460ff1660ff16145b5b610b12576040517f08c379a0000000000000000000000000000000000000000000000000000000008152600401610b09906121a1565b60405180910390fd5b60016000806101000a81548160ff021916908360ff1602179055508015610b4f576001600060016101000a81548160ff0219169083151502179055505b610b588261126d565b8015610bb15760008060016101000a81548160ff0219169083151502179055507f7f26b83ff96e1f2b6a682f133852f6798a09c465da95921460cefb38474024986001604051610ba89190612209565b60405180910390a15b5050565b610bbd610968565b73ffffffffffffffffffffffffffffffffffffffff163373ffffffffffffffffffffffffffffffffffffffff161480610c4357506001600c9054906101000a900473ffffffffffffffffffffffffffffffffffffffff1673ffffffffffffffffffffffffffffffffffffffff163373ffffffffffffffffffffffffffffffffffffffff16145b610c82576040517f08c379a0000000000000000000000000000000000000000000000000000000008152600401610c7990612270565b60405180910390fd5b565b6000808473ffffffffffffffffffffffffffffffffffffffff168484604051610cad919061230a565b60006040518083038185875af1925050503d8060008114610cea576040519150601f19603f3d011682016040523d82523d6000602084013e610cef565b606091505b509150915081610d0157805160208201fd5b5050505050565b6000610d367f360894a13ba1a3210667c828492db98dca3e2076cc3735a920a3ca505d382bbc60001b611386565b60000160009054906101000a900473ffffffffffffffffffffffffffffffffffffffff16905090565b610d67611182565b50565b610d967f4910fdfa16fed3260ed0e7147f7cc6da11a60208b5b9406d12a635614ffd914360001b611390565b60000160009054906101000a900460ff1615610dba57610db58361139a565b610ed3565b8273ffffffffffffffffffffffffffffffffffffffff166352d1902d6040518163ffffffff1660e01b8152600401602060405180830381865afa925050508015610e2257506040513d601f19601f82011682018060405250810190610e1f9190612336565b60015b610e61576040517f08c379a0000000000000000000000000000000000000000000000000000000008152600401610e58906123d5565b60405180910390fd5b7f360894a13ba1a3210667c828492db98dca3e2076cc3735a920a3ca505d382bbc60001b8114610ec6576040517f08c379a0000000000000000000000000000000000000000000000000000000008152600401610ebd90612467565b60405180910390fd5b50610ed2838383611453565b5b505050565b610ee0610968565b73ffffffffffffffffffffffffffffffffffffffff163373ffffffffffffffffffffffffffffffffffffffff1614610f4d576040517f08c379a0000000000000000000000000000000000000000000000000000000008152600401610f44906124d3565b60405180910390fd5b565b600080610f5b8361147f565b905060008060008060008089806101400190610f779190611e25565b810190610f8491906125a4565b955095509550955095509550600260009054906101000a900473ffffffffffffffffffffffffffffffffffffffff1673ffffffffffffffffffffffffffffffffffffffff16633bc778e38787878787876040518763ffffffff1660e01b8152600401610ff5969594939291906126dd565b600060405180830381600087803b15801561100f57600080fd5b505af1158015611023573d6000803e3d6000fd5b50505050600097505050505050505092915050565b80602001356001600081819054906101000a90046bffffffffffffffffffffffff168092919061106790612757565b91906101000a8154816bffffffffffffffffffffffff02191690836bffffffffffffffffffffffff1602179055506bffffffffffffffffffffffff16146110e3576040517f08c379a00000000000000000000000000000000000000000000000000000000081526004016110da906127d7565b60405180910390fd5b50565b6000811461117f5760003373ffffffffffffffffffffffffffffffffffffffff16827fffffffffffffffffffffffffffffffffffffffffffffffffffffffffffffffff906040516111369061281d565b600060405180830381858888f193505050503d8060008114611174576040519150601f19603f3d011682016040523d82523d6000602084013e611179565b606091505b50509050505b50565b6001600c9054906101000a900473ffffffffffffffffffffffffffffffffffffffff1673ffffffffffffffffffffffffffffffffffffffff163373ffffffffffffffffffffffffffffffffffffffff16148061120957503073ffffffffffffffffffffffffffffffffffffffff163373ffffffffffffffffffffffffffffffffffffffff16145b611248576040517f08c379a000000000000000000000000000000000000000000000000000000000815260040161123f9061287e565b60405180910390fd5b565b6000808273ffffffffffffffffffffffffffffffffffffffff163b119050919050565b806001600c6101000a81548173ffffffffffffffffffffffffffffffffffffffff021916908373ffffffffffffffffffffffffffffffffffffffff160217905550600260009054906101000a900473ffffffffffffffffffffffffffffffffffffffff1673ffffffffffffffffffffffffffffffffffffffff166001600c9054906101000a900473ffffffffffffffffffffffffffffffffffffffff1673ffffffffffffffffffffffffffffffffffffffff167f000000000000000000000000000000000000000000000000000000000000000073ffffffffffffffffffffffffffffffffffffffff167f75f8e81b7b87d23a8670b2473d12bad2f533ba5a233ce09a7f3e0d0d101a889160405160405180910390a450565b6000819050919050565b6000819050919050565b6113a38161124a565b6113e2576040517f08c379a00000000000000000000000000000000000000000000000000000000081526004016113d990612910565b60405180910390fd5b8061140f7f360894a13ba1a3210667c828492db98dca3e2076cc3735a920a3ca505d382bbc60001b611386565b60000160006101000a81548173ffffffffffffffffffffffffffffffffffffffff021916908373ffffffffffffffffffffffffffffffffffffffff16021790555050565b61145c836114af565b6000825111806114695750805b1561147a5761147883836114fe565b505b505050565b60008160405160200161149291906129a8565b604051602081830303815290604052805190602001209050919050565b6114b88161139a565b8073ffffffffffffffffffffffffffffffffffffffff167fbc7cd75a20ee27fd9adebab32041f755214dbc6bffa90cc0225b39da2e5c2d3b60405160405180910390a250565b60606115238383604051806060016040528060278152602001612aa16027913961152b565b905092915050565b60606000808573ffffffffffffffffffffffffffffffffffffffff1685604051611555919061230a565b600060405180830381855af49150503d8060008114611590576040519150601f19603f3d011682016040523d82523d6000602084013e611595565b606091505b50915091506115a6868383876115b1565b925050509392505050565b6060831561161357600083510361160b576115cb8561124a565b61160a576040517f08c379a000000000000000000000000000000000000000000000000000000000815260040161160190612a1a565b60405180910390fd5b5b82905061161e565b61161d8383611626565b5b949350505050565b6000825111156116395781518083602001fd5b806040517f08c379a000000000000000000000000000000000000000000000000000000000815260040161166d9190612a7e565b60405180910390fd5b6000604051905090565b600080fd5b600080fd5b600080fd5b600080fd5b600080fd5b60008083601f8401126116af576116ae61168a565b5b8235905067ffffffffffffffff8111156116cc576116cb61168f565b5b6020830191508360208202830111156116e8576116e7611694565b5b9250929050565b60008083601f8401126117055761170461168a565b5b8235905067ffffffffffffffff8111156117225761172161168f565b5b60208301915083602082028301111561173e5761173d611694565b5b9250929050565b6000806000806040858703121561175f5761175e611680565b5b600085013567ffffffffffffffff81111561177d5761177c611685565b5b61178987828801611699565b9450945050602085013567ffffffffffffffff8111156117ac576117ab611685565b5b6117b8878288016116ef565b925092505092959194509250565b600073ffffffffffffffffffffffffffffffffffffffff82169050919050565b60006117f1826117c6565b9050919050565b611801816117e6565b811461180c57600080fd5b50565b60008135905061181e816117f8565b92915050565b60006020828403121561183a57611839611680565b5b60006118488482850161180f565b91505092915050565b600080fd5b6000610160828403121561186d5761186c611851565b5b81905092915050565b6000819050919050565b61188981611876565b811461189457600080fd5b50565b6000813590506118a681611880565b92915050565b6000819050919050565b6118bf816118ac565b81146118ca57600080fd5b50565b6000813590506118dc816118b6565b92915050565b6000806000606084860312156118fb576118fa611680565b5b600084013567ffffffffffffffff81111561191957611918611685565b5b61192586828701611856565b935050602061193686828701611897565b9250506040611947868287016118cd565b9150509250925092565b61195a816118ac565b82525050565b60006020820190506119756000830184611951565b92915050565b6000611986826117c6565b9050919050565b6119968161197b565b81146119a157600080fd5b50565b6000813590506119b38161198d565b92915050565b600080604083850312156119d0576119cf611680565b5b60006119de858286016119a4565b92505060206119ef858286016118cd565b9150509250929050565b600080fd5b6000601f19601f8301169050919050565b7f4e487b7100000000000000000000000000000000000000000000000000000000600052604160045260246000fd5b611a47826119fe565b810181811067ffffffffffffffff82111715611a6657611a65611a0f565b5b80604052505050565b6000611a79611676565b9050611a858282611a3e565b919050565b600067ffffffffffffffff821115611aa557611aa4611a0f565b5b611aae826119fe565b9050602081019050919050565b82818337600083830152505050565b6000611add611ad884611a8a565b611a6f565b905082815260208101848484011115611af957611af86119f9565b5b611b04848285611abb565b509392505050565b600082601f830112611b2157611b2061168a565b5b8135611b31848260208601611aca565b91505092915050565b60008060408385031215611b5157611b50611680565b5b6000611b5f8582860161180f565b925050602083013567ffffffffffffffff811115611b8057611b7f611685565b5b611b8c85828601611b0c565b9150509250929050565b611b9f81611876565b82525050565b6000602082019050611bba6000830184611b96565b92915050565b6000819050919050565b6000611be5611be0611bdb846117c6565b611bc0565b6117c6565b9050919050565b6000611bf782611bca565b9050919050565b6000611c0982611bec565b9050919050565b611c1981611bfe565b82525050565b6000602082019050611c346000830184611c10565b92915050565b611c43816117e6565b82525050565b6000602082019050611c5e6000830184611c3a565b92915050565b6000611c6f82611bec565b9050919050565b611c7f81611c64565b82525050565b6000602082019050611c9a6000830184611c76565b92915050565b60008083601f840112611cb657611cb561168a565b5b8235905067ffffffffffffffff811115611cd357611cd261168f565b5b602083019150836001820283011115611cef57611cee611694565b5b9250929050565b60008060008060608587031215611d1057611d0f611680565b5b6000611d1e8782880161180f565b9450506020611d2f878288016118cd565b935050604085013567ffffffffffffffff811115611d5057611d4f611685565b5b611d5c87828801611ca0565b925092505092959194509250565b600082825260208201905092915050565b7f77726f6e67206172726179206c656e6774687300000000000000000000000000600082015250565b6000611db1601383611d6a565b9150611dbc82611d7b565b602082019050919050565b60006020820190508181036000830152611de081611da4565b9050919050565b7f4e487b7100000000000000000000000000000000000000000000000000000000600052603260045260246000fd5b600080fd5b600080fd5b600080fd5b60008083356001602003843603038112611e4257611e41611e16565b5b80840192508235915067ffffffffffffffff821115611e6457611e63611e1b565b5b602083019250600182023603831315611e8057611e7f611e20565b5b509250929050565b7f4e487b7100000000000000000000000000000000000000000000000000000000600052601160045260246000fd5b6000611ec2826118ac565b91507fffffffffffffffffffffffffffffffffffffffffffffffffffffffffffffffff8203611ef457611ef3611e88565b5b600182019050919050565b7f46756e6374696f6e206d7573742062652063616c6c6564207468726f7567682060008201527f64656c656761746563616c6c0000000000000000000000000000000000000000602082015250565b6000611f5b602c83611d6a565b9150611f6682611eff565b604082019050919050565b60006020820190508181036000830152611f8a81611f4e565b9050919050565b7f46756e6374696f6e206d7573742062652063616c6c6564207468726f7567682060008201527f6163746976652070726f78790000000000000000000000000000000000000000602082015250565b6000611fed602c83611d6a565b9150611ff882611f91565b604082019050919050565b6000602082019050818103600083015261201c81611fe0565b9050919050565b61202c8161197b565b82525050565b60006040820190506120476000830185612023565b6120546020830184611951565b9392505050565b7f555550535570677261646561626c653a206d757374206e6f742062652063616c60008201527f6c6564207468726f7567682064656c656761746563616c6c0000000000000000602082015250565b60006120b7603883611d6a565b91506120c28261205b565b604082019050919050565b600060208201905081810360008301526120e6816120aa565b9050919050565b6000815190506120fc816118b6565b92915050565b60006020828403121561211857612117611680565b5b6000612126848285016120ed565b91505092915050565b7f496e697469616c697a61626c653a20636f6e747261637420697320616c72656160008201527f647920696e697469616c697a6564000000000000000000000000000000000000602082015250565b600061218b602e83611d6a565b91506121968261212f565b604082019050919050565b600060208201905081810360008301526121ba8161217e565b9050919050565b6000819050919050565b600060ff82169050919050565b60006121f36121ee6121e9846121c1565b611bc0565b6121cb565b9050919050565b612203816121d8565b82525050565b600060208201905061221e60008301846121fa565b92915050565b7f6163636f756e743a206e6f74204f776e6572206f7220456e747279506f696e74600082015250565b600061225a602083611d6a565b915061226582612224565b602082019050919050565b600060208201905081810360008301526122898161224d565b9050919050565b600081519050919050565b600081905092915050565b60005b838110156122c45780820151818401526020810190506122a9565b838111156122d3576000848401525b50505050565b60006122e482612290565b6122ee818561229b565b93506122fe8185602086016122a6565b80840191505092915050565b600061231682846122d9565b915081905092915050565b60008151905061233081611880565b92915050565b60006020828403121561234c5761234b611680565b5b600061235a84828501612321565b91505092915050565b7f45524331393637557067726164653a206e657720696d706c656d656e7461746960008201527f6f6e206973206e6f742055555053000000000000000000000000000000000000602082015250565b60006123bf602e83611d6a565b91506123ca82612363565b604082019050919050565b600060208201905081810360008301526123ee816123b2565b9050919050565b7f45524331393637557067726164653a20756e737570706f727465642070726f7860008201527f6961626c65555549440000000000000000000000000000000000000000000000602082015250565b6000612451602983611d6a565b915061245c826123f5565b604082019050919050565b6000602082019050818103600083015261248081612444565b9050919050565b7f6163636f756e743a206e6f742066726f6d20456e747279506f696e7400000000600082015250565b60006124bd601c83611d6a565b91506124c882612487565b602082019050919050565b600060208201905081810360008301526124ec816124b0565b9050919050565b600067ffffffffffffffff82111561250e5761250d611a0f565b5b602082029050919050565b600061252c612527846124f3565b611a6f565b9050806020840283018581111561254657612545611694565b5b835b8181101561256f578061255b88826118cd565b845260208401935050602081019050612548565b5050509392505050565b600082601f83011261258e5761258d61168a565b5b600861259b848285612519565b91505092915050565b6000806000806000806101a087890312156125c2576125c1611680565b5b60006125d089828a016118cd565b96505060206125e189828a016118cd565b95505060406125f289828a016118cd565b945050606061260389828a016118cd565b935050608061261489828a016118cd565b92505060a061262589828a01612579565b9150509295509295509295565b600060089050919050565b600081905092915050565b6000819050919050565b61265b816118ac565b82525050565b600061266d8383612652565b60208301905092915050565b6000602082019050919050565b61268f81612632565b612699818461263d565b92506126a482612648565b8060005b838110156126d55781516126bc8782612661565b96506126c783612679565b9250506001810190506126a8565b505050505050565b60006101a0820190506126f36000830189611951565b6127006020830188611951565b61270d6040830187611951565b61271a6060830186611951565b6127276080830185611951565b61273460a0830184612686565b979650505050505050565b60006bffffffffffffffffffffffff82169050919050565b60006127628261273f565b91506bffffffffffffffffffffffff82036127805761277f611e88565b5b600182019050919050565b7f6163636f756e743a20696e76616c6964206e6f6e636500000000000000000000600082015250565b60006127c1601683611d6a565b91506127cc8261278b565b602082019050919050565b600060208201905081810360008301526127f0816127b4565b9050919050565b50565b600061280760008361229b565b9150612812826127f7565b600082019050919050565b6000612828826127fa565b9150819050919050565b7f6f6e6c79206f776e657200000000000000000000000000000000000000000000600082015250565b6000612868600a83611d6a565b915061287382612832565b602082019050919050565b600060208201905081810360008301526128978161285b565b9050919050565b7f455243313936373a206e657720696d706c656d656e746174696f6e206973206e60008201527f6f74206120636f6e747261637400000000000000000000000000000000000000602082015250565b60006128fa602d83611d6a565b91506129058261289e565b604082019050919050565b60006020820190508181036000830152612929816128ed565b9050919050565b600081905092915050565b7f19457468657265756d205369676e6564204d6573736167653a0a333200000000600082015250565b6000612971601c83612930565b915061297c8261293b565b601c82019050919050565b6000819050919050565b6129a261299d82611876565b612987565b82525050565b60006129b382612964565b91506129bf8284612991565b60208201915081905092915050565b7f416464726573733a2063616c6c20746f206e6f6e2d636f6e7472616374000000600082015250565b6000612a04601d83611d6a565b9150612a0f826129ce565b602082019050919050565b60006020820190508181036000830152612a33816129f7565b9050919050565b600081519050919050565b6000612a5082612a3a565b612a5a8185611d6a565b9350612a6a8185602086016122a6565b612a73816119fe565b840191505092915050565b60006020820190508181036000830152612a988184612a45565b90509291505056fe416464726573733a206c6f772d6c6576656c2064656c65676174652063616c6c206661696c6564a2646970667358221220a1d4c90fa46f6d36a2ef2d8bbd3caeedc40896e3b784fd6a60bd977aa614515864736f6c634300080f0033",
  "linkReferences": {},
  "deployedLinkReferences": {}
}