{
  "_format": "hh-sol-artifact-1",
  "contractName": "TestBundler",
  "sourceName": "contracts/TestBundler.sol",
  "abi": [
    {
      "inputs": [
        {
          "internalType": "address",
          "name": "_verifier",
          "type": "address"
        }
      ],
      "stateMutability": "nonpayable",
      "type": "constructor"
    },
    {
      "anonymous": false,
      "inputs": [
        {
          "indexed": false,
          "internalType": "string",
          "name": "huntId",
          "type": "string"
        },
        {
          "indexed": false,
          "internalType": "string",
          "name": "name",
          "type": "string"
        },
        {
          "indexed": false,
          "internalType": "string",
          "name": "description",
          "type": "string"
        },
        {
          "indexed": false,
          "internalType": "uint256",
          "name": "prize",
          "type": "uint256"
        },
        {
          "indexed": false,
          "internalType": "uint256",
          "name": "endTime",
          "type": "uint256"
        },
        {
          "indexed": false,
          "internalType": "string",
          "name": "imageReference",
          "type": "string"
        },
        {
          "indexed": false,
          "internalType": "string",
          "name": "target",
          "type": "string"
        }
      ],
      "name": "HuntAdded",
      "type": "event"
    },
    {
      "anonymous": false,
      "inputs": [
        {
          "indexed": false,
          "internalType": "string",
          "name": "huntId",
          "type": "string"
        },
        {
          "indexed": false,
          "internalType": "address",
          "name": "winner",
          "type": "address"
        },
        {
          "indexed": false,
          "internalType": "uint256",
          "name": "prize",
          "type": "uint256"
        }
      ],
      "name": "PrizeWon",
      "type": "event"
    },
    {
      "anonymous": false,
      "inputs": [
        {
          "indexed": false,
          "internalType": "string",
          "name": "testParam",
          "type": "string"
        }
      ],
      "name": "TestBundler1Event",
      "type": "event"
    },
    {
      "anonymous": false,
      "inputs": [
        {
          "indexed": false,
          "internalType": "string",
          "name": "testParam",
          "type": "string"
        }
      ],
      "name": "TestVerifyAndAwardPrizeEvent",
      "type": "event"
    },
    {
      "anonymous": false,
      "inputs": [
        {
          "indexed": false,
          "internalType": "string",
          "name": "testParam",
          "type": "string"
        },
        {
          "indexed": false,
          "internalType": "address",
          "name": "winner",
          "type": "address"
        }
      ],
      "name": "TestVerifyAndAwardPrizeEvent1",
      "type": "event"
    },
    {
      "anonymous": false,
      "inputs": [
        {
          "indexed": false,
          "internalType": "string",
          "name": "testParam",
          "type": "string"
        },
        {
          "indexed": false,
          "internalType": "address",
          "name": "winner",
          "type": "address"
        },
        {
          "indexed": false,
          "internalType": "bytes",
          "name": "proof",
          "type": "bytes"
        }
      ],
      "name": "TestVerifyAndAwardPrizeEvent2",
      "type": "event"
    },
    {
      "anonymous": false,
      "inputs": [
        {
          "indexed": false,
          "internalType": "string",
          "name": "testParam",
          "type": "string"
        },
        {
          "indexed": false,
          "internalType": "address",
          "name": "winner",
          "type": "address"
        },
        {
          "indexed": false,
          "internalType": "bytes",
          "name": "proof",
          "type": "bytes"
        }
      ],
      "name": "TestVerifyAndAwardPrizeEvent3",
      "type": "event"
    },
    {
      "inputs": [
        {
          "internalType": "string",
          "name": "huntId",
          "type": "string"
        },
        {
          "internalType": "string",
          "name": "name",
          "type": "string"
        },
        {
          "internalType": "string",
          "name": "description",
          "type": "string"
        },
        {
          "internalType": "uint256",
          "name": "endTime",
          "type": "uint256"
        },
        {
          "internalType": "string",
          "name": "imageReference",
          "type": "string"
        },
        {
          "internalType": "string",
          "name": "target",
          "type": "string"
        }
      ],
      "name": "addHunt",
      "outputs": [],
      "stateMutability": "payable",
      "type": "function"
    },
    {
      "inputs": [],
      "name": "owner",
      "outputs": [
        {
          "internalType": "address payable",
          "name": "",
          "type": "address"
        }
      ],
      "stateMutability": "view",
      "type": "function"
    },
    {
      "inputs": [
        {
          "internalType": "string",
          "name": "testParam",
          "type": "string"
        }
      ],
      "name": "testBundler1",
      "outputs": [],
      "stateMutability": "nonpayable",
      "type": "function"
    },
    {
      "inputs": [],
      "name": "verifier",
      "outputs": [
        {
          "internalType": "address",
          "name": "",
          "type": "address"
        }
      ],
      "stateMutability": "view",
      "type": "function"
    },
    {
      "inputs": [
        {
          "internalType": "string",
          "name": "testParam",
          "type": "string"
        }
      ],
      "name": "verifyAndAwardPrize",
      "outputs": [],
      "stateMutability": "nonpayable",
      "type": "function"
    },
    {
      "inputs": [
        {
          "internalType": "string",
          "name": "huntId",
          "type": "string"
        },
        {
          "internalType": "address",
          "name": "winner",
          "type": "address"
        }
      ],
      "name": "verifyAndAwardPrize1",
      "outputs": [],
      "stateMutability": "nonpayable",
      "type": "function"
    },
    {
      "inputs": [
        {
          "internalType": "string",
          "name": "huntId",
          "type": "string"
        },
        {
          "internalType": "address",
          "name": "winner",
          "type": "address"
        },
        {
          "internalType": "bytes",
          "name": "proof",
          "type": "bytes"
        }
      ],
      "name": "verifyAndAwardPrize2",
      "outputs": [],
      "stateMutability": "nonpayable",
      "type": "function"
    },
    {
      "inputs": [
        {
          "internalType": "string",
          "name": "huntId",
          "type": "string"
        },
        {
          "internalType": "address",
          "name": "winner",
          "type": "address"
        },
        {
          "internalType": "bytes",
          "name": "proof",
          "type": "bytes"
        }
      ],
      "name": "verifyAndAwardPrize3",
      "outputs": [],
      "stateMutability": "nonpayable",
      "type": "function"
    }
  ],
  "bytecode": "0x60806040523480156200001157600080fd5b50604051620011b4380380620011b4833981810160405281019062000037919062000129565b336000806101000a81548173ffffffffffffffffffffffffffffffffffffffff021916908373ffffffffffffffffffffffffffffffffffffffff16021790555080600160006101000a81548173ffffffffffffffffffffffffffffffffffffffff021916908373ffffffffffffffffffffffffffffffffffffffff160217905550506200015b565b600080fd5b600073ffffffffffffffffffffffffffffffffffffffff82169050919050565b6000620000f182620000c4565b9050919050565b6200010381620000e4565b81146200010f57600080fd5b50565b6000815190506200012381620000f8565b92915050565b600060208284031215620001425762000141620000bf565b5b6000620001528482850162000112565b91505092915050565b611049806200016b6000396000f3fe60806040526004361061007b5760003560e01c8063849ccc951161004e578063849ccc95146101195780638da5cb5b14610142578063c96172561461016d578063d0249e75146101965761007b565b806329ec6a4e146100805780632b7ac3f3146100a9578063560980dd146100d4578063708e2853146100fd575b600080fd5b34801561008c57600080fd5b506100a760048036038101906100a2919061077c565b6101bf565b005b3480156100b557600080fd5b506100be610294565b6040516100cb9190610816565b60405180910390f35b3480156100e057600080fd5b506100fb60048036038101906100f69190610831565b6102ba565b005b610117600480360381019061011291906108c3565b6102f7565b005b34801561012557600080fd5b50610140600480360381019061013b91906109dc565b61044b565b005b34801561014e57600080fd5b50610157610485565b6040516101649190610a46565b60405180910390f35b34801561017957600080fd5b50610194600480360381019061018f91906109dc565b6104a9565b005b3480156101a257600080fd5b506101bd60048036038101906101b8919061077c565b6104e3565b005b60006002846040516101d19190610adb565b908152602001604051809103902060030154905060006002856040516101f79190610adb565b9081526020016040518091039020600301819055508273ffffffffffffffffffffffffffffffffffffffff166108fc829081150290604051600060405180830381858888f19350505050158015610252573d6000803e3d6000fd5b507f2b5fab0779cec52cc76c04b06b333c81c3c04c6108ada441c22e943452927e0d84848460405161028693929190610b91565b60405180910390a150505050565b600160009054906101000a900473ffffffffffffffffffffffffffffffffffffffff1681565b7fe1e883dc8516d53d99a678c6d1e48f8a9d000f7dfa84ca2e4f7cb8c9de005bc282826040516102eb929190610bd6565b60405180910390a15050565b6000341161033a576040517f08c379a000000000000000000000000000000000000000000000000000000000815260040161033190610c52565b60405180910390fd5b600060028760405161034c9190610adb565b908152602001604051809103902090508681600001908161036d9190610e7e565b508581600101908161037f9190610e7e565b50848160020190816103919190610e7e565b50348160030181905550838160040181905550828160050190816103b59190610e7e565b50818160060190816103c79190610e7e565b5060016003886040516103da9190610adb565b908152602001604051809103902060006101000a81548160ff0219169083151502179055507f16dfca623eff0e602c550df792e47c93c37bcc0d78811849a75bf8ae4380710e8787873488888860405161043a9796959493929190610f5f565b60405180910390a150505050505050565b7fe0f09d4838f22e5899a9c1b83c3b3e62db67c3539064819ff0ee2a66f35d4add8160405161047a9190610ff1565b60405180910390a150565b60008054906101000a900473ffffffffffffffffffffffffffffffffffffffff1681565b7f42a137afc6ee2d387257264bfcab98a4cb1883a0ffc1cc718124656478bbcf72816040516104d89190610ff1565b60405180910390a150565b7fa91a9aff0f661c75b63e5e316a918dab29ea9d8abaf66ebb75c40cffea400b0583838360405161051693929190610b91565b60405180910390a1505050565b6000604051905090565b600080fd5b600080fd5b600080fd5b600080fd5b6000601f19601f8301169050919050565b7f4e487b7100000000000000000000000000000000000000000000000000000000600052604160045260246000fd5b61058a82610541565b810181811067ffffffffffffffff821117156105a9576105a8610552565b5b80604052505050565b60006105bc610523565b90506105c88282610581565b919050565b600067ffffffffffffffff8211156105e8576105e7610552565b5b6105f182610541565b9050602081019050919050565b82818337600083830152505050565b600061062061061b846105cd565b6105b2565b90508281526020810184848401111561063c5761063b61053c565b5b6106478482856105fe565b509392505050565b600082601f83011261066457610663610537565b5b813561067484826020860161060d565b91505092915050565b600073ffffffffffffffffffffffffffffffffffffffff82169050919050565b60006106a88261067d565b9050919050565b6106b88161069d565b81146106c357600080fd5b50565b6000813590506106d5816106af565b92915050565b600067ffffffffffffffff8211156106f6576106f5610552565b5b6106ff82610541565b9050602081019050919050565b600061071f61071a846106db565b6105b2565b90508281526020810184848401111561073b5761073a61053c565b5b6107468482856105fe565b509392505050565b600082601f83011261076357610762610537565b5b813561077384826020860161070c565b91505092915050565b6000806000606084860312156107955761079461052d565b5b600084013567ffffffffffffffff8111156107b3576107b2610532565b5b6107bf8682870161064f565b93505060206107d0868287016106c6565b925050604084013567ffffffffffffffff8111156107f1576107f0610532565b5b6107fd8682870161074e565b9150509250925092565b6108108161069d565b82525050565b600060208201905061082b6000830184610807565b92915050565b600080604083850312156108485761084761052d565b5b600083013567ffffffffffffffff81111561086657610865610532565b5b6108728582860161064f565b9250506020610883858286016106c6565b9150509250929050565b6000819050919050565b6108a08161088d565b81146108ab57600080fd5b50565b6000813590506108bd81610897565b92915050565b60008060008060008060c087890312156108e0576108df61052d565b5b600087013567ffffffffffffffff8111156108fe576108fd610532565b5b61090a89828a0161064f565b965050602087013567ffffffffffffffff81111561092b5761092a610532565b5b61093789828a0161064f565b955050604087013567ffffffffffffffff81111561095857610957610532565b5b61096489828a0161064f565b945050606061097589828a016108ae565b935050608087013567ffffffffffffffff81111561099657610995610532565b5b6109a289828a0161064f565b92505060a087013567ffffffffffffffff8111156109c3576109c2610532565b5b6109cf89828a0161064f565b9150509295509295509295565b6000602082840312156109f2576109f161052d565b5b600082013567ffffffffffffffff811115610a1057610a0f610532565b5b610a1c8482850161064f565b91505092915050565b6000610a308261067d565b9050919050565b610a4081610a25565b82525050565b6000602082019050610a5b6000830184610a37565b92915050565b600081519050919050565b600081905092915050565b60005b83811015610a95578082015181840152602081019050610a7a565b83811115610aa4576000848401525b50505050565b6000610ab582610a61565b610abf8185610a6c565b9350610acf818560208601610a77565b80840191505092915050565b6000610ae78284610aaa565b915081905092915050565b600082825260208201905092915050565b6000610b0e82610a61565b610b188185610af2565b9350610b28818560208601610a77565b610b3181610541565b840191505092915050565b600081519050919050565b600082825260208201905092915050565b6000610b6382610b3c565b610b6d8185610b47565b9350610b7d818560208601610a77565b610b8681610541565b840191505092915050565b60006060820190508181036000830152610bab8186610b03565b9050610bba6020830185610807565b8181036040830152610bcc8184610b58565b9050949350505050565b60006040820190508181036000830152610bf08185610b03565b9050610bff6020830184610807565b9392505050565b7f7072697a652063616e6e6f74206265207a65726f000000000000000000000000600082015250565b6000610c3c601483610af2565b9150610c4782610c06565b602082019050919050565b60006020820190508181036000830152610c6b81610c2f565b9050919050565b7f4e487b7100000000000000000000000000000000000000000000000000000000600052602260045260246000fd5b60006002820490506001821680610cb957607f821691505b602082108103610ccc57610ccb610c72565b5b50919050565b60008190508160005260206000209050919050565b60006020601f8301049050919050565b600082821b905092915050565b600060088302610d347fffffffffffffffffffffffffffffffffffffffffffffffffffffffffffffffff82610cf7565b610d3e8683610cf7565b95508019841693508086168417925050509392505050565b6000819050919050565b6000610d7b610d76610d718461088d565b610d56565b61088d565b9050919050565b6000819050919050565b610d9583610d60565b610da9610da182610d82565b848454610d04565b825550505050565b600090565b610dbe610db1565b610dc9818484610d8c565b505050565b5b81811015610ded57610de2600082610db6565b600181019050610dcf565b5050565b601f821115610e3257610e0381610cd2565b610e0c84610ce7565b81016020851015610e1b578190505b610e2f610e2785610ce7565b830182610dce565b50505b505050565b600082821c905092915050565b6000610e5560001984600802610e37565b1980831691505092915050565b6000610e6e8383610e44565b9150826002028217905092915050565b610e8782610a61565b67ffffffffffffffff811115610ea057610e9f610552565b5b610eaa8254610ca1565b610eb5828285610df1565b600060209050601f831160018114610ee85760008415610ed6578287015190505b610ee08582610e62565b865550610f48565b601f198416610ef686610cd2565b60005b82811015610f1e57848901518255600182019150602085019450602081019050610ef9565b86831015610f3b5784890151610f37601f891682610e44565b8355505b6001600288020188555050505b505050505050565b610f598161088d565b82525050565b600060e0820190508181036000830152610f79818a610b03565b90508181036020830152610f8d8189610b03565b90508181036040830152610fa18188610b03565b9050610fb06060830187610f50565b610fbd6080830186610f50565b81810360a0830152610fcf8185610b03565b905081810360c0830152610fe38184610b03565b905098975050505050505050565b6000602082019050818103600083015261100b8184610b03565b90509291505056fea26469706673582212202c8184d8ed2bc4bbf40e59ea7e97dd6f85682cc308239388ef6542e29fcc016864736f6c634300080f0033",
  "linkReferences": {},
  "deployedLinkReferences": {}
}